:020000040800F2
:1000000000800120A53B00082321000829210008C9
:100010002F210008352100083B21000800000000C6
:10002000000000000000000000000000991300081C
:100030004121000800000000551300088512000847
:10004000F53B0008F53B0008F53B0008F53B0008D0
:10005000F53B0008F53B0008F53B0008F53B0008C0
:10006000F53B0008F53B0008F53B0008F53B0008B0
:10007000F53B0008F53B0008F53B0008F53B0008A0
:100080004F210008F53B0008F53B00080000000088
:10009000000000000000000000000000F53B000828
:1000A000F53B0008F53B0008F53B0008F53B000870
:1000B000F53B0008F53B0008F53B0008F53B000860
:1000C000F53B0008F53B0008F53B0008F53B000850
:1000D000F53B0008F53B0008F53B00080000000078
:1000E000F53B0008F53B0008F53B00080000000068
:1000F000000000000000000000000000F53B0008C8
:1001000000000000F53B00085D210008F53B0008F9
:1001100000000000000000000000000000000000DF
:10012000F53B0008F53B0008F53B0008F53B0008EF
:10013000F53B000800000000000000000000000087
:10014000000000000000000000000000F53B000877
:10015000F53B0008F53B0008F53B0008F53B0008BF
:10016000F53B0008F53B000800000000000000001F
:10017000000000000000000000000000000000007F
:1001800000000000F53B0008000000000000000037
:04019000F53B000833
:1001940053B94AB9002908BF00281CBF4FF0FF31EA
:1001A4004FF0FF3000F00CB8ADF1080C6DE904CE4F
:1001B40003F020FDDDF804E0DDE9022304B070471C
:1001C400704700BF0348044B834202D0034B03B182
:1001D40018477047080000200800002000000000B5
:1001E4000548064B1B1AD90F01EBA301491002D095
:1001F400034B03B118477047080000200800002093
:100204000000000010B5064C237843B9FFF7DAFF6D
:10021400044B13B10448AFF300800123237010BDD5
:100224000800002000000000183F000808B5054B36
:100234001BB105490548AFF30080BDE80840FFF74E
:10024400CFBF00BF000000000C000020183F0008D2
:1002540080B485B000AF78607B681B6803F06003EE
:10026400FB60FB68002B04D17B681B6803F0100360
:10027400FB60FB6818461437BD465DF8047B704785
:1002840080B483B000AF78607B681B6B18460C3772
:10029400BD465DF8047B704780B483B000AF7860DE
:1002A40039607B681A6A3B681A437B681A6200BF2C
:1002B4000C37BD465DF8047B704780B483B000AF53
:1002C400786039607B681A6A3B68DB431A407B6854
:1002D4001A6200BF0C37BD465DF8047B704780B4DA
:1002E40083B000AF78607B685B6C43F400427B684A
:1002F4005A6400BF0C37BD465DF8047B704780B478
:1003040083B000AF78607B68DB6843F001027B68F0
:10031400DA6000BF0C37BD465DF8047B704780B4DB
:1003240083B000AF78607B68DB6823F001027B68F0
:10033400DA6000BF0C37BD465DF8047B704780B4BB
:1003440083B000AF78607B68DB6803F00103012BA6
:1003540001D1012300E0002318460C37BD465DF8A7
:10036400047B704780B483B000AF78607B68DB683F
:1003740043F002027B68DA6000BF0C37BD465DF8CB
:10038400047B704780B483B000AF78607B68DB681F
:1003940023F002027B68DA6000BF0C37BD465DF8CB
:1003A400047B704780B483B000AF78607B68DB68FF
:1003B40003F00203022B01D1012300E000231846BD
:1003C4000C37BD465DF8047B704780B483B000AF42
:1003D40078607B68DB6843F004027B68DA6000BF06
:1003E4000C37BD465DF8047B704780B483B000AF22
:1003F40078607B68DB6823F004027B68DA6000BF06
:100404000C37BD465DF8047B704780B483B000AF01
:1004140078607B68DB6803F00403042B01D10123BB
:1004240000E0002318460C37BD465DF8047B704796
:1004340080B483B000AF78607B68DB6843F0080267
:100444007B68DA6000BF0C37BD465DF8047B7047FB
:1004540080B483B000AF78607B68DB6823F0080267
:100464007B68DA6000BF0C37BD465DF8047B7047DB
:1004740080B483B000AF78607B68DB6803F0080366
:10048400082B01D1012300E0002318460C37BD4698
:100494005DF8047B704780B483B000AF78607B68FC
:1004A400DB6843F010027B68DA6000BF0C37BD469E
:1004B4005DF8047B704780B483B000AF78607B68DC
:1004C400DB6823F010027B68DA6000BF0C37BD469E
:1004D4005DF8047B704780B483B000AF78607B68BC
:1004E400DB6803F01003102B01D1012300E000238B
:1004F40018460C37BD465DF8047B704780B483B062
:1005040000AF78607B68DB6843F020027B68DA60C8
:1005140000BF0C37BD465DF8047B704780B483B0E0
:1005240000AF78607B68DB6823F020027B68DA60C8
:1005340000BF0C37BD465DF8047B704780B483B0C0
:1005440000AF78607B68DB6803F02003202B01D1C7
:10055400012300E0002318460C37BD465DF8047BF8
:10056400704780B483B000AF78607B68DB6843F089
:1005740040027B68DA6000BF0C37BD465DF8047B3F
:10058400704780B483B000AF78607B68DB6823F089
:1005940040027B68DA6000BF0C37BD465DF8047B1F
:1005A400704780B483B000AF78607B68DB6803F089
:1005B4004003402B01D1012300E0002318460C37EF
:1005C400BD465DF8047B704780B483B000AF7860AB
:1005D4007B68DB6843F080027B68DA6000BF0C371D
:1005E400BD465DF8047B704780B483B000AF78608B
:1005F4007B68DB6823F080027B68DA6000BF0C371D
:10060400BD465DF8047B704780B483B000AF78606A
:100614007B68DB6803F08003802B01D1012300E0B9
:10062400002318460C37BD465DF8047B704780B53F
:1006340082B000AF78600B467B807B8803F00103B7
:10064400002B0CD07B681B681846FFF7AAFF0346F3
:10065400012B04D07B681B681846FFF782FF7B8858
:1006640003F00203002B0CD07B681B681846FFF7CD
:1006740099FE0346012B04D07B681B681846FFF7DC
:1006840071FE7B8803F00403002B0CD07B681B688D
:100694001846FFF7BAFE0346012B04D07B681B689B
:1006A4001846FFF792FE7B8803F00803002B0CD05A
:1006B4007B681B681846FFF7DBFE0346012B04D05A
:1006C4007B681B681846FFF7B3FE7B8803F01003B2
:1006D400002B0CD07B681B681846FFF7FCFE034612
:1006E400012B04D07B681B681846FFF7D4FE7B8877
:1006F40003F02003002B0CD07B681B681846FFF71F
:100704001EFE0346012B04D07B681B681846FFF7C6
:10071400F6FD7B8803F04003002B0CD07B681B683C
:100724001846FFF771FF0346012B04D07B681B6852
:100734001846FFF749FF7B8803F08003002B0CD099
:100744007B681B681846FFF7F9FE0346012B04D0AB
:100754007B681B681846FFF7D1FE00BF0837BD460B
:1007640080BD80B582B000AF78600B467B807B880B
:1007740003F00103002B0CD07B681B681846FFF7BD
:1007840010FF0346012B04D17B681B681846FFF752
:10079400F8FE7B8803F00203002B0CD07B681B68F7
:1007A4001846FFF7FFFD0346012B04D17B681B6845
:1007B4001846FFF7E7FD7B8803F00403002B0CD0F9
:1007C4007B681B681846FFF720FE0346012B04D103
:1007D4007B681B681846FFF708FE7B8803F0080354
:1007E400002B0CD07B681B681846FFF741FE0346BC
:1007F400012B04D17B681B681846FFF729FE7B8810
:1008040003F01003002B0CD07B681B681846FFF71D
:1008140062FE0346012B04D17B681B681846FFF770
:100824004AFE7B8803F02003002B0CD07B681B68F6
:100834001846FFF784FD0346012B04D07B681B6830
:100844001846FFF76CFD7B8803F04003002B0CD0A7
:100854007B681B681846FFF7D7FE0346012B04D1BB
:100864007B681B681846FFF7BFFE7B8803F0800394
:10087400002B0CD07B681B681846FFF75FFE03460D
:10088400012B04D17B681B681846FFF747FE00BFA5
:100894000837BD4680BD000080B582B000AF7860E7
:1008A4000B46FB70FB78022B06D17B681B68012189
:1008B4001846FFF7F1FC1DE07B681B680F4A934262
:1008C40018D1FB78032B06D17B681B6804211846DA
:1008D400FFF7E2FC0EE0FB78042B0BD17B681B686E
:1008E40001211846FFF7D8FC7B681B6804211846D1
:1008F400FFF7D2FC00BF0837BD4680BD00000140B1
:1009040080B582B000AF78600B46FB70FB78022B99
:1009140006D17B681B6801211846FFF7CEFC1DE059
:100924007B681B680F4A934218D1FB78032B06D1CE
:100934007B681B6804211846FFF7BFFC0EE0FB78B8
:10094400042B0BD17B681B6801211846FFF7B5FC0B
:100954007B681B6804211846FFF7AFFC00BF08370B
:10096400BD4680BD0000014080B582B000AF786014
:100974000B46FB70FB78022B06D17B681B681021A9
:100984001846FFF789FC1DE07B681B680F4A9342F9
:1009940018D1FB78032B06D17B681B6840211846CD
:1009A400FFF77AFC0EE0FB78042B0BD17B681B6805
:1009B40010211846FFF770FC7B681B68402118461D
:1009C400FFF76AFC00BF0837BD4680BD0000014048
:1009D40080B582B000AF78600B46FB70FB78022BC9
:1009E40006D17B681B6810211846FFF766FC1DE0E2
:1009F4007B681B680F4A934218D1FB78032B06D1FE
:100A04007B681B6840211846FFF757FC0EE0FB7813
:100A1400042B0BD17B681B6810211846FFF74DFC93
:100A24007B681B6840211846FFF747FC00BF083766
:100A3400BD4680BD0000014080B584B000AF786041
:100A44000023FB607B681B681C4A934201D11C4B4A
:100A5400FB607B681A68FB681A60FB681B681846B1
:100A6400FFF7F6FBB860BB68002B06D0BB68102B01
:100A740003D0FB6801221A7102E0FB6800221A719C
:100A8400FB681B680F4A934204D1FB681B68184635
:100A9400FFF725FCFB681B680A4A934208D17B6870
:100AA4001B681846FFF7ECFB0346DAB2FB685A7181
:100AB400FB6818461037BD4680BD00BF00040040E7
:100AC400240000200000014080B485B000AF7860AD
:100AD40039603B68FB603B68B3F5803F0CD37B68AF
:100AE4001B68B3F1804F07D07B681B68064A9342AA
:100AF40002D04FF6FF73FB60FB6818461437BD46FF
:100B04005DF8047B704700BF000C004080B483B0E4
:100B140000AF78607B681B6843F001027B681A6051
:100B240000BF0C37BD465DF8047B704780B483B0CA
:100B340000AF78607B681B6823F001027B681A6051
:100B440000BF0C37BD465DF8047B704780B483B0AA
:100B540000AF786039607B681B6823F004023B684F
:100B64001A437B681A6000BF0C37BD465DF8047BEE
:100B7400704780B483B000AF78607B681B6803F073
:100B8400040318460C37BD465DF8047B704780B4F7
:100B940083B000AF786039607B683A68DA6200BF7E
:100BA4000C37BD465DF8047B704780B483B000AF5A
:100BB40078607B68DB6A18460C37BD465DF8047BB9
:100BC400704780B483B000AF786039607B683A685E
:100BD4001A6300BF0C37BD465DF8047B704780B4D0
:100BE40083B000AF786039607B683A685A6300BFAD
:100BF4000C37BD465DF8047B704780B483B000AF0A
:100C0400786039607B683A689A6300BF0C37BD46E8
:100C14005DF8047B704780B483B000AF78607B6874
:100C24005B6B18460C37BD465DF8047B704780B497
:100C340083B000AF78607B689B6B18460C37BD4669
:100C44005DF8047B704780B483B000AF78607B6844
:100C54005B6943F001027B685A6100BF0C37BD46F3
:100C64005DF8047B704780B483B000AF786039606E
:100C74007B683A689A6100BF0C37BD465DF8047B17
:100C8400704780B483B000AF786039603B681A0461
:100C94007B689A6100BF0C37BD465DF8047B7047E2
:100CA40080B584B000AF786087ED000AD7ED007A94
:100CB400F5EEC07AF1EE10FA03D54FF000033B6075
:100CC4000AE0D7ED007A9FED167AF4EEC77AF1EEDA
:100CD40010FA01DD134B3B607B681B681846FFF775
:100CE40064FFF8607B681B79002B0CBF0123002391
:100CF400DBB21A46FB68134407EE903AB8EE677A03
:100D0400D7ED007A27EE277ADFED056AC7EE267A5B
:100D1400FCEEE77A17EE903A18461037BD4680BDD0
:100D24000000C8420000C84280B582B000AF7860BD
:100D340039607B681B681846FFF737FF02463B683B
:100D4400934205D07B681B6839681846FFF71FFF7C
:100D540000BF0837BD4680BD80B582B000AF786063
:100D640039607B681B681846FFF755FF02463B68ED
:100D7400934205D07B681B6839681846FFF72FFF3C
:100D840000BF0837BD4680BD80B582B000AF786033
:100D940039607B681B681846FFF749FF02463B68C9
:100DA400934205D07B681B6839681846FFF725FF16
:100DB40000BF0837BD4680BD80B584B000AF786001
:100DC40087ED000A97ED000A7868FFF769FFF8607D
:100DD400F9687868FFF7C0FF00BF1037BD4680BDD3
:100DE40080B584B000AF786087ED000A97ED000A03
:100DF4007868FFF755FFF860F9687868FFF7C4FF73
:100E040000BF1037BD4680BD80B485B000AF7860A8
:100E14007B681B689B6803F00703FB60FB68062B79
:100E24000CBF01230023DBB218461437BD465DF81E
:100E3400047B704780B584B000AF78600B46FB70CC
:100E44007B681B681846FFF794FEF860FB78002B5C
:100E54000AD07B681B681E4A934205D17B681B68D5
:100E640000211846FFF7ADFEFB68042B11D07B6808
:100E74001B6804211846FFF769FE7B681B68184647
:100E8400FFF7E1FE7B681B68F9681846FFF75EFE12
:100E940004E07B681B681846FFF7D5FE7B681B6877
:100EA4001846FFF733FEFB78002B0CD07B681B68D9
:100EB400074A934207D17B681A687B685B791946B5
:100EC4001046FFF77EFE00BF1037BD4680BD00BF51
:100ED4000000014080B582B000AF78607B681B6879
:100EE4001846FFF723FE00BF0837BD4680BD00004B
:100EF40080B5A6B000AF78607B6801225A601C4BB5
:100F0400BB6000233B7300237B7307F1080318467F
:100F1400FFF792FD02467B68DA607B68DB6800219C
:100F24001846FFF784FB7B68DB6802211846FFF74D
:100F3400B3FC7B68DB6802211846FFF715FD7B686C
:100F4400DB681846FFF760FF034687F8973097F889
:100F54009730002B05D17B68DB6800211846FFF72A
:100F640069FF7B6801221A7200BF9837BD4680BDB5
:100F74000004004080B582B000AF1A4BDB6843F236
:100F8400BC411846FFF7A0FD7860164BDB68796812
:100F94001846FFF7C9FE134BDB689FED130A18468A
:100FA400FFF70AFF0F4BDB68B3EE0E0A1846FFF794
:100FB40017FF0E4B3B6080213868FFF754FE002179
:100FC4003868FFF75EFE094B3B604FF48061386878
:100FD400FFF749FE00213868FFF753FE00BF0837CA
:100FE400BD4680BDB00000200000A04200000240C9
:100FF40080B500AF054B00225A60044B00221A70E2
:101004000248FFF775FF00BF80BD00BFB00000209D
:1010140080B500AF134B1B78002B21D1114B01225B
:101024001A70104B5B68012B1AD10E4B1B7A002BE4
:1010340016D00C4BDB681846FFF74CFF094BDB68F6
:1010440000211846FFF78DFB064BDB68022118468A
:10105400FFF756FC034BDB6802211846FFF7B8FC88
:1010640000BF80BDB000002080B500AF0F4B1B78DF
:101074005A1CD1B20D4A1170002B09D00C4B01221D
:101084001A600A4B1B78013BDAB2084B1A700BE06A
:1010940062B600BFFFF76EFF72B600BF034B1B784A
:1010A400013BDAB2014B1A7080BD00BFC8000020BA
:1010B400C400002080B584B000AF786039602E4B46
:1010C400FB602E4BBB602E4B00221A702D4B00226E
:1010D4001A7001DF02F050FA00F0CEFD00F058F86B
:1010E40000F0B2FF00F098FF00F0C6FE00F046FEEC
:1010F40000F042FF00F010FE234B1B6800221A6030
:10110400FFF776FF72B600BF97ED030A00F0C8F848
:101114001D4B1B681B68002B0CBF01230023DBB293
:101124001A46184B1A7062B600BF62B600BF15E0CB
:10113400154B1B681B68002B14BF01230023DBB273
:101144001A460F4B1A700E4B1B78DBB2002B05D0DE
:101154000E4B1B680D4A23F001031360094B1B78E7
:10116400DBB2002BE4D1FFF753FF72B600BF0023BC
:1011740018461037BD4680BD6666663F0000A8422B
:10118400C9000020CA000020303F000810E000E041
:1011940080B400AF00BFBD465DF8047B704700BF5C
:1011A40080B483B000AF03463960FB7197F9073010
:1011B400002B0ADB3B68DAB20C4997F907301201BD
:1011C400D2B20B4483F800230AE03B68DAB2084940
:1011D400FB7903F00F03043B1201D2B20B441A76DD
:1011E40000BF0C37BD465DF8047B704700E100E0AA
:1011F40000ED00E080B582B000AF78607B68013B11
:10120400B3F1807F01D301230FE00A4A7B68013BDD
:1012140053600F214FF0FF30FFF7C2FF054B002250
:101224009A60044B07221A60002318460837BD460B
:1012340080BD00BF10E000E080B500AFBFF34F8F6A
:1012440000BFBFF36F8F00BF0B4B1A680B4B1B68BB
:101254009A4202D3084B00221A60074B1B685A1C9F
:1012640005490A60002B05D172B600BFFFF7FCFEEA
:1012740062B600BF00BF80BDCC000020D0000020BB
:1012840080B400AF054B5B68044A43F0805353605D
:1012940000BFBD465DF8047B704700BF00ED00E071
:1012A40080B584B000AF87ED010A234B1B6807EEBD
:1012B400903AB8EE677AD7ED017A67EE277AFCEEBA
:1012C400E77A17EE903AFB60FB68B3F1807F18D39E
:1012D400FB6807EE903AB8EE677ADFED186AC7EE5E
:1012E400267AFCEEE77A17EE903A0133144A13603B
:1012F400134B1B68FA68B2FBF3F31846FFF77AFF47
:1013040005E00F4B00221A60F868FFF773FF0D4BDE
:1013140000221A600C4A0D4B1A600F216FF0040072
:10132400FFF73EFF0F216FF00100FFF739FF00BF09
:101334001037BD4680BD00BF04000020FFFF7F4B77
:10134400D0000020CC0000203D120008D400002072
:10135400EFF3008001B5EFF3118003B41EF0100F1A
:1013640008BFB0EE400A0A48006803B488B004A07D
:1013740006904FF0807007906FF006008646704725
:1013840003BC8047BFF36F8F00DFFEE700BF0000A0
:10139400D40000201EF0100F08BFB0EE400A1EF06B
:1013A400040F0CBFEFF30880EFF30980816911F893
:1013B400020C10B101280DD00BE01EF0100F0CBF71
:1013C4001AB008B003BC80F3118803BC80F3008812
:1013D4000847FEE74EF61451CEF200010A6842F0C7
:1013E40001020A607047F4E700BF00BF80B400AF99
:1013F400044BDB681B0A03F007031846BD465DF87F
:10140400047B704700ED00E080B483B000AF034676
:10141400FB7197F90730002B0BDBFB7903F01F02FC
:10142400074997F907305B09012000FA02F241F8F5
:10143400232000BF0C37BD465DF8047B704700BF16
:1014440000E100E080B483B000AF03463960FB7173
:1014540097F90730002B0ADB3B68DAB20C4997F99D
:1014640007301201D2B20B4483F800230AE03B6830
:10147400DAB20849FB7903F00F03043B1201D2B23C
:101484000B441A7600BF0C37BD465DF8047B7047E9
:1014940000E100E000ED00E080B489B000AFF86046
:1014A400B9607A60FB6803F00703FB61FB69C3F171
:1014B4000703042B28BF0423BB61FB690433062BF9
:1014C40002D9FB69033B00E000237B614FF0FF324C
:1014D400BB6902FA03F3DA43BB681A407B699A409A
:1014E4004FF0FF317B6901FA03F3D9437B680B406A
:1014F400134318462437BD465DF8047B704700004B
:1015040080B485B000AFF860B9607A600D4ABB68FA
:1015140013441B781A46FB6813441B6823F0C0026B
:101524000849BB680B441B781946FB680B441946F1
:101534007B6813430B6000BF1437BD465DF8047B22
:10154400704700BF343F000880B485B000AFF86036
:10155400B9607A600D4ABB6813441B781A46FB686D
:1015640013441B6823F490720849BB680B441B782E
:101574001946FB680B4419467B6813430B6000BF94
:101584001437BD465DF8047B704700BF343F000844
:1015940080B485B000AFF860B9607A600D4ABB686A
:1015A40013441B781A46FB6813441B6823F4007227
:1015B4000849BB680B441B781946FB680B44194661
:1015C4007B6813430B6000BF1437BD465DF8047B92
:1015D400704700BF343F000880B485B000AFF860A6
:1015E400B9607A600D4ABB6813441B781A46FB68DD
:1015F40013441B6823F480620849BB680B441B78BE
:101604001946FB680B4419467B6813430B6000BF03
:101614001437BD465DF8047B704700BF343F0008B3
:1016240080B485B000AFF860B9607A600D4ABB68D9
:1016340013441B781A46FB6813441B6823F4C052F6
:101644000849BB680B441B781946FB680B441946D0
:101654007B6813430B6000BF1437BD465DF8047B01
:10166400704700BF343F000880B485B000AFF86015
:10167400B9607A600D4ABB6813441B781A46FB684C
:1016840013441B6823F4C0420849BB680B441B780D
:101694001946FB680B4419467B6813430B6000BF73
:1016A4001437BD465DF8047B704700BF343F000823
:1016B40080B485B000AFF860B9607A600D4ABB6849
:1016C40013441B781A46FB6813441B6823F4403206
:1016D4000849BB680B441B781946FB680B44194640
:1016E4007B6813430B6000BF1437BD465DF8047B71
:1016F400704700BF343F000880B485B000AFF86085
:10170400B9607A600D4ABB6813441B781A46FB68BB
:1017140013441B6823F060620849BB680B441B78C0
:101724001946FB680B4419467B6813430B6000BFE2
:101734001437BD465DF8047B704700BF343F000892
:1017440080B483B000AF786039600C4A3B681344BE
:101754001B781A467B6813445B6908493A680A4453
:10176400127811467A680A4423F00403536100BFD7
:101774000C37BD465DF8047B704700BF343F00085A
:1017840080B400AF054B1B68044A43F001031360A7
:1017940000BFBD465DF8047B704700BF00380240BF
:1017A40080B400AF064B1B6803F00203022B0CBF8E
:1017B40001230023DBB21846BD465DF8047B704765
:1017C4000038024080B483B000AF7860074B1B68D8
:1017D40023F0F8027B68DB00044913430B6000BF6D
:1017E4000C37BD465DF8047B704700BF00380240EB
:1017F40080B483B000AF7860064B9B6823F003028B
:1018040004497B6813438B6000BF0C37BD465DF809
:10181400047B70470038024080B400AF044B9B68DF
:1018240003F00C031846BD465DF8047B704700BF07
:101834000038024080B483B000AF7860064B9B68E8
:1018440023F0F00204497B6813438B6000BF0C371C
:10185400BD465DF8047B70470038024080B483B015
:1018640000AF7860064B9B6823F4E05204497B6820
:1018740013438B6000BF0C37BD465DF8047B704793
:101884000038024080B483B000AF7860064B9B6898
:1018940023F4604204497B6813438B6000BF0C3718
:1018A400BD465DF8047B70470038024080B483B0C5
:1018B40000AF7860074BD3F88C3023F08072054971
:1018C4007B681343C1F88C3000BF0C37BD465DF80C
:1018D400047B70470038024080B400AF054B1B689E
:1018E400044A43F08073136000BFBD465DF8047B77
:1018F400704700BF0038024080B400AF074B1B683C
:1019040003F00073B3F1007F0CBF01230023DBB2AB
:101914001846BD465DF8047B704700BF003802409E
:1019240080B485B000AFF860B9607A603B600D4B5D
:101934005A680D4B1340F968BA6811437A689201EA
:101944000A43084913434B60064B5B6823F4403257
:1019540004493B6813434B6000BF1437BD465DF830
:10196400047B7047003802400080BFFF80B485B01C
:1019740000AF7860084B1A6B07497B6813430B630D
:10198400054B1A6B7B681340FB60FB6800BF143780
:10199400BD465DF8047B70470038024080B485B0D2
:1019A40000AF7860084B1A6C07497B6813430B64DB
:1019B400054B1A6C7B681340FB60FB6800BF14374F
:1019C400BD465DF8047B70470038024080B485B0A2
:1019D40000AF7860084B5A6C07497B6813434B642B
:1019E400054B5A6C7B681340FB60FB6800BF1437DF
:1019F400BD465DF8047B70470038024080B483B074
:101A040000AF7860064B1B6823F0070204497B682B
:101A140013430B6000BF0C37BD465DF8047B704771
:101A2400003C024080B400AF044B1B6803F0070382
:101A34001846BD465DF8047B704700BF003C024079
:101A440080B483B000AF7860064B1B6823F4404237
:101A540004497B6813430B6000BF0C37BD465DF837
:101A6400047B70470070004080B483B000AF78609E
:101A74007B681B6823F080027B681A6000BF0C3708
:101A8400BD465DF8047B704780B485B000AF7860D4
:101A940039603B68012B1CD03B68042B17D03B6892
:101AA400102B12D03B68402B0DD03B68B3F5807FE0
:101AB40007D03B68B3F5806F01D105230AE0062304
:101AC40008E0042306E0032304E0022302E00123E8
:101AD40000E00023FB737B6818331946FB7B0B4A39
:101AE400D35C0B44BB60BB681A68FB7B0849CB5CC6
:101AF400194604238B40DB431A40BB681A6000BFBD
:101B04001437BD465DF8047B704700BF3C3F0008B6
:101B1400443F000880B485B000AF786039603B680A
:101B2400012B1CD03B68042B17D03B68102B12D020
:101B34003B68402B0DD03B68B3F5807F07D03B68F2
:101B4400B3F5806F01D105230AE0062308E00423DE
:101B540006E0032304E0022302E0012300E0002363
:101B6400FB737B6818331946FB7B0A4AD35C0B442E
:101B7400BB60BB681A68FB7B0749CB5C194608232A
:101B84008B401A43BB681A6000BF1437BD465DF82A
:101B9400047B70473C3F0008443F000880B483B096
:101BA40000AF786039607B689B6823F4804323F03E
:101BB40007033A681A437B689A6000BF0C37BD4636
:101BC4005DF8047B704780B483B000AF78603960FF
:101BD4007B685B6823F070023B681A437B685A6039
:101BE40000BF0C37BD465DF8047B704780B483B0FA
:101BF40000AF78607B689B6823F080027B689A6002
:101C040000BF0C37BD465DF8047B704780B483B0D9
:101C140000AF78607B68DB6843F400527B68DA606D
:101C240000BF0C37BD465DF8047B704780B483B0B9
:101C340000AF78607B681B6923F490427B681A616B
:101C44007B685B6923F02A027B685A6100BF0C370A
:101C5400BD465DF8047B704780B483B000AF786004
:101C640039603B681A047B689A6100BF0C37BD4633
:101C74005DF8047B7047000080B500AF0220FFF7D9
:101C8400BDFE00BFFFF7CEFE0346022BFAD14FF490
:101C94000040FFF7D5FE1020FFF794FDFFF770FD1D
:101CA40000BFFFF77DFD0346012BFAD14FF48033CB
:101CB4004FF4A87210210020FFF732FEFFF70CFE4C
:101CC40000BFFFF719FE0346012BFAD10020FFF7EE
:101CD400B1FD4FF48050FFF7C1FD0020FFF7D2FDA6
:101CE4000220FFF785FD00BFFFF796FD0346082B92
:101CF400FAD1084801F0FCFA002000F05FFA03462C
:101D0400002B01D000F006FA0020FFF7CFFD00BF42
:101D140080BD00BF00BD010580B586B000AF3B1D8E
:101D240000221A605A609A60DA601A610120FFF793
:101D34004DFE0023BB800023BB604FF6FF73FB60A6
:101D440000233B6100237B613B1D19460A4800F0D8
:101D54004DFF0948FFF788FE00210748FFF71EFFE3
:101D640000210548FFF72FFF0348FFF73FFF00BF9F
:101D74001837BD4680BD00BF0000014080B594B057
:101D840000AF07F13C0300221A605A609A60DA60DF
:101D94001A6107F11C0320220021184602F08EF874
:101DA4003B1D00221A605A609A60DA601A615A6117
:101DB4000220FFF7F3FD0023BB8700233B644FF6AB
:101DC400FF737B640023BB6407F13C031946284876
:101DD40000F00CFF2648FFF747FE00212448FFF7D8
:101DE400DDFE01212248FFF795FE6023FB610023FD
:101DF4003B6200237B620023BB620023FB6207F18A
:101E04001C031A4601211A4800F06AFF01211848F0
:101E1400FFF73AFE10211648FFF77CFE07F11C037A
:101E24001A461021124800F05BFF10211048FFF7FA
:101E34002BFE00210E48FFF7C6FE0D48FFF7D6FE25
:101E44000220FFF793FD30237B600223BB60002355
:101E5400FB6000233B6100237B610223BB613B1DCC
:101E64001946044800F04FFB00BF5037BD4680BD03
:101E7400000400400004024080B58EB000AF07F1BA
:101E84001C0300221A605A609A60DA601A615A616F
:101E94009A613B1D00221A605A609A60DA601A61E6
:101EA4005A614FF40030FFF779FD0120FFF75EFD22
:101EB4000C237B600223BB600023FB6000233B6197
:101EC40000237B610723BB613B1D1946274800F0B3
:101ED4001AFB4FF0006205212548FFF70DFC002294
:101EE40005212348FFF70CFB002205212048FFF7BA
:101EF400DFFB002205211E48FFF726FB00220521F7
:101F04001B48FFF745FB4FF4806205211848FFF793
:101F140063FB002205211648FFF782FB00220521FE
:101F24001348FFF7A1FB05211148FFF709FC4FF403
:101F3400E133FB6100233B6200237B620023BB622D
:101F44000C23FB6200233B6300237B6307F11C0328
:101F54001946084801F0AEFD0648FFF767FE05483C
:101F6400FFF754FE00BF3837BD4680BD0000024075
:101F7400006002400044004080B58EB000AF07F11D
:101F84001C0300221A605A609A60DA601A615A616E
:101F94009A613B1D00221A605A609A60DA601A61E5
:101FA4005A612020FFF712FD0420FFF7DFFCC02355
:101FB4007B600223BB600323FB6000233B6100239F
:101FC4007B610823BB613B1D1946114800F09BFA55
:101FD4004FF4E133FB6100233B6200237B62002367
:101FE400BB620C23FB6200233B6300237B6307F18A
:101FF4001C031946074801F05DFD0648FFF716FE6D
:102004000448FFF703FE00BF3837BD4680BD00BF5C
:10201400000802400014014080B500AF4FF40010E6
:10202400FFF7A4FCFFF7E2F903460022002118465B
:10203400FFF732FA034619461020FFF703FA10207F
:10204400FFF7E2F900BF80BD80B586B000AF3B4624
:1020540000221A605A609A60DA601A615A61042098
:10206400FFF784FC8020FFF781FC0120FFF77EFC52
:102074000220FFF77BFC4FF4B4611A48FFF7ECFD34
:1020840008211948FFF7E8FD06233B6003237B6022
:1020940000233B613B461946144800F034FA4FF4E0
:1020A400B4633B6001237B600023BB600023FB60BF
:1020B40000233B613B4619460A4800F024FA0823F2
:1020C4003B6001237B600023BB600023FB60002393
:1020D4003B613B461946044800F015FA00BF183727
:1020E400BD4680BD000002400004024000080240DA
:1020F40080B582B000AF78607B681B68044A934265
:1021040001D101F05BFA00BF0837BD4680BD00BFB6
:10211400000C004080B400AF72B600BFFEE780B48C
:1021240000AFFEE780B400AFFEE780B400AFFEE787
:1021340080B400AFFEE780B400AFFEE780B400AF28
:1021440000BFBD465DF8047B704780B400AF00BF9C
:10215400BD465DF8047B704780B500AF024800F0CF
:102164000FFB00BF80BD00BFD800002080B582B047
:1021740000AF00237B60104B5B6C0F4A43F4804339
:1021840053640D4B5B6C03F480437B607B680023DA
:102194003B60094B1B6C084A43F080531364064BA5
:1021A4001B6C03F080533B603B68072001F0AFF9E0
:1021B40000BF0837BD4680BD0038024080B58CB0F2
:1021C40000AF78600023FB620023BB6200227968C1
:1021D400322001F0A7F9322001F0C0F90023FB609E
:1021E4001F4B1B6C1E4A43F0080313641C4B1B6CEF
:1021F40003F00803FB60FB6807F1100207F1140306
:102204001146184601F0A4F801F08EF803465B006D
:10221400FB62FB6A134AA2FB03239B0C013BBB62D8
:10222400114B124A1A60104B40F2E732DA600E4A40
:10223400BB6A53600C4B00221A610B4B00229A605C
:10224400094800F0E1F90346002B04D1064800F0E8
:1022540035FA034600E0012318463037BD4680BDF9
:102264000038024083DE1B43D8000020000C0040ED
:1022740080B48BB000AFF860B9607A60FB681A680C
:10228400BB687B617B6993FAA3F33B613B69BB61E8
:10229400BB69002B01D1202303E0BB69B3FA83F3AC
:1022A400DBB25B00032101FA03F3DB431A40BB6892
:1022B4003B623B6A93FAA3F3FB61FB697B627B6A33
:1022C400002B01D1202303E07B6AB3FA83F3DBB252
:1022D4005B00796801FA03F31A43FB681A6000BFD4
:1022E4002C37BD465DF8047B704780B485B000AFE1
:1022F400F860B9607A60FB685A68BB68DB431A40CF
:10230400BB68796801FB03F31A43FB685A6000BF9A
:102314001437BD465DF8047B704780B48BB000AFC2
:10232400F860B9607A60FB689A68BB687B617B6916
:1023340093FAA3F33B613B69BB61BB69002B01D1F9
:10234400202303E0BB69B3FA83F3DBB25B00032110
:1023540001FA03F3DB431A40BB683B623B6A93FA1E
:10236400A3F3FB61FB697B627B6A002B01D1202311
:1023740003E07B6AB3FA83F3DBB25B00796801FAAA
:1023840003F31A43FB689A6000BF2C37BD465DF81F
:10239400047B704780B48BB000AFF860B9607A609A
:1023A400FB68DA68BB687B617B6993FAA3F33B61E2
:1023B4003B69BB61BB69002B01D1202303E0BB69EE
:1023C400B3FA83F3DBB25B00032101FA03F3DB43CB
:1023D4001A40BB683B623B6A93FAA3F3FB61FB6957
:1023E4007B627B6A002B01D1202303E07B6AB3FA72
:1023F40083F3DBB25B00796801FA03F31A43FB68E9
:10240400DA6000BF2C37BD465DF8047B704780B4AA
:102414008BB000AFF860B9607A60FB681A6ABB6879
:102424007B617B6993FAA3F33B613B69BB61BB6945
:10243400002B01D1202303E0BB69B3FA83F3DBB2A1
:102444009B000F2101FA03F3DB431A40BB683B6294
:102454003B6A93FAA3F3FB61FB697B627B6A002B03
:1024640001D1202303E07B6AB3FA83F3DBB29B0040
:10247400796801FA03F31A43FB681A6200BF2C3728
:10248400BD465DF8047B704780B48BB000AFF86044
:10249400B9607A60FB685A6ABB681B0A7B617B6916
:1024A40093FAA3F33B613B69BB61BB69002B01D188
:1024B400202303E0BB69B3FA83F3DBB29B000F2153
:1024C40001FA03F3DB431A40BB681B0A3B623B6A15
:1024D40093FAA3F3FB61FB697B627B6A002B01D156
:1024E400202303E07B6AB3FA83F3DBB29B007968B1
:1024F40001FA03F31A43FB685A6200BF2C37BD4646
:102504005DF8047B704780B58AB000AF78603960AD
:1025140000237B6200233B623B681B68BB61BB6991
:1025240093FAA3F37B617B69FB61FB69002B01D107
:10253400202303E0FB69B3FA83F3DBB27B6257E049
:102544003B681A6801217B6A01FA03F313403B627A
:102554003B6A002B49D03B685B68012B03D03B6886
:102564005B68022B0DD13B689B681A46396A786810
:10257400FFF7D3FE3B68DB681A46396A7868FFF7D1
:10258400B4FE3B681B691A46396A7868FFF702FF94
:102594003B685B68022B21D13B6AFB60FB6893FAC2
:1025A400A3F3BB60BB683B613B69002B01D12023D3
:1025B40003E03B69B3FA83F3DBB2072B07D83B682C
:1025C4005B691A46396A7868FFF721FF06E03B68C1
:1025D4005B691A46396A7868FFF756FF3B685B689F
:1025E4001A46396A7868FFF743FE7B6A01337B62D7
:1025F4003B681A687B6A22FA03F3002BA0D10023FC
:1026040018462837BD4680BD80B582B000AF7860DB
:102614007B68002B01D1012341E07B6893F83D30B6
:10262400DBB2002B06D17B68002283F83C2078685B
:1026340000F039F87B68022283F83D207B681A6831
:102644007B6804331946104600F0CAF97B680122FE
:1026540083F846207B68012283F83E207B680122B0
:1026640083F83F207B68012283F840207B680122A5
:1026740083F841207B68012283F842207B68012291
:1026840083F843207B68012283F844207B6801227D
:1026940083F845207B68012283F83D2000231846F7
:1026A4000837BD4680BD80B483B000AF786000BFFA
:1026B4000C37BD465DF8047B7047000080B485B0DC
:1026C40000AF78607B6893F83D30DBB2012B01D01A
:1026D400012344E07B68022283F83D207B681B6869
:1026E400DA687B681B6842F00102DA607B681B6869
:1026F4001E4A934218D07B681B68B3F1804F13D0F5
:102704007B681B681A4A93420ED07B681B68194A7F
:10271400934209D07B681B68174A934204D07B68B4
:102724001B68164A934211D17B681B689B6803F0AF
:102734000703FB60FB68062B10D07B681B681A68D4
:102744007B681B6842F001021A6007E07B681B6823
:102754001A687B681B6842F001021A60002318465D
:102764001437BD465DF8047B704700BF000001408C
:102774000004004000080040000C004000400140FC
:1027840080B582B000AF78607B681B681B6903F07A
:102794000203022B22D17B681B68DB6803F002036F
:1027A400022B1BD17B681B686FF002021A617B68E5
:1027B40001221A777B681B689B6903F00303002BD3
:1027C40003D0786800F0EEF805E0786800F0E0F8EF
:1027D400786800F0F1F87B6800221A777B681B6840
:1027E4001B6903F00403042B22D17B681B68DB689C
:1027F40003F00403042B1BD17B681B686FF00402F5
:102804001A617B6802221A777B681B689B6903F450
:102814004073002B03D0786800F0C4F805E07868B2
:1028240000F0B6F8786800F0C7F87B6800221A77E1
:102834007B681B681B6903F00803082B22D17B68A3
:102844001B68DB6803F00803082B1BD17B681B683B
:102854006FF008021A617B6804221A777B681B6890
:10286400DB6903F00303002B03D0786800F09AF8C7
:1028740005E0786800F08CF8786800F09DF87B68D3
:1028840000221A777B681B681B6903F01003102B66
:1028940022D17B681B68DB6803F01003102B1BD16B
:1028A4007B681B686FF010021A617B6808221A7734
:1028B4007B681B68DB6903F44073002B03D07868E2
:1028C40000F070F805E0786800F062F8786800F0CD
:1028D40073F87B6800221A777B681B681B6903F016
:1028E4000103012B0ED17B681B68DB6803F0010335
:1028F400012B07D17B681B686FF001021A617868AD
:10290400FFF7F6FB7B681B681B6903F08003802BD1
:102914000ED17B681B68DB6803F08003802B07D132
:102924007B681B686FF080021A61786800F0E2F837
:102934007B681B681B6903F04003402B0ED17B6846
:102944001B68DB6803F04003402B07D17B681B68DE
:102954006FF040021A61786800F038F87B681B68F1
:102964001B6903F02003202B0ED17B681B68DB68F6
:1029740003F02003202B07D17B681B686FF0200233
:102984001A61786800F0ACF800BF0837BD4680BD16
:1029940080B483B000AF786000BF0C37BD465DF8EB
:1029A400047B704780B483B000AF786000BF0C37FD
:1029B400BD465DF8047B704780B483B000AF786097
:1029C40000BF0C37BD465DF8047B704780B483B00C
:1029D40000AF786000BF0C37BD465DF8047B7047DC
:1029E40080B485B000AF786039607B681B68FB6099
:1029F4007B68344A93420FD07B68B3F1804F0BD08D
:102A04007B68314A934207D07B68304A934203D0B3
:102A14007B682F4A934208D1FB6823F07003FB6064
:102A24003B685B68FA681343FB607B68254A934202
:102A34001BD07B68B3F1804F17D07B68224A934246
:102A440013D07B68214A93420FD07B68204A93427B
:102A54000BD07B681F4A934207D07B681E4A93427F
:102A640003D07B681D4A934208D1FB6823F440736A
:102A7400FB603B68DB68FA681343FB60FB6823F088
:102A840080023B685B691343FB607B68FA681A60E9
:102A94003B689A687B68DA623B681A687B689A626A
:102AA4007B68084A934203D13B681A697B681A63BE
:102AB4007B6801225A6100BF1437BD465DF8047B70
:102AC400704700BF000001400004004000080040BF
:102AD400000C004000400140004401400048014017
:102AE40080B483B000AF786000BF0C37BD465DF89A
:102AF400047B704780B483B000AF786000BF0C37AC
:102B0400BD465DF8047B704780B483B000AF786045
:102B140039607B683A689A6200BF0C37BD465DF83D
:102B2400047B704780B483B000AF786039607B6801
:102B34003A68DA6200BF0C37BD465DF8047B704723
:102B440080B483B000AF786039607B683A681A63F8
:102B540000BF0C37BD465DF8047B704780B483B07A
:102B640000AF786039607B683A685A6300BF0C37FD
:102B7400BD465DF8047B704780B483B000AF7860D5
:102B840039607B683A689A6300BF0C37BD465DF8CC
:102B9400047B704780B483B000AF786039607B6891
:102BA4003A68DA6300BF0C37BD465DF8047B7047B2
:102BB40080B483B000AF786039607B683A681A6487
:102BC40000BF0C37BD465DF8047B704780B483B00A
:102BD40000AF78607B685B6943F001027B685A61EF
:102BE40000BF0C37BD465DF8047B704780B584B0E8
:102BF40000AF786039607B681B68FB607B68314A92
:102C040093420FD07B68B3F1804F0BD07B682E4A80
:102C1400934207D07B682D4A934203D07B682C4AA9
:102C2400934206D1FB6823F070023B685B68134350
:102C3400FB607B68234A93421BD07B68B3F1804FCF
:102C440017D07B68204A934213D07B681F4A934273
:102C54000FD07B681E4A93420BD07B681D4A934277
:102C640007D07B681C4A934203D07B681B4A93427B
:102C740006D1FB6823F440723B68DB681343FB60B6
:102C84007B68FA681A603B689B6819467868FFF7A6
:102C940049FF3B681B8819467868FFF735FF7B6856
:102CA400084A934205D13B681B6919467868FFF7C7
:102CB40047FF7868FFF78AFF002318461037BD46A0
:102CC40080BD00BF00000140000400400008004037
:102CD400000C004000400140004401400048014015
:102CE40080B586B000AFF860B9607A600123FB75E7
:102CF400BB68B3F5805F27D0BB68B3F5805F2AD883
:102D0400BB68B3F5807F18D0BB68B3F5807F22D849
:102D1400BB68012B03D0BB68102B07D01BE079687C
:102D2400F86800F01FF80346FB7515E07968F86849
:102D340000F07EF80346FB750EE07968F86800F051
:102D4400E1F80346FB7507E07968F86800F044F998
:102D54000346FB7500E000BFFB7D18461837BD46EF
:102D640080BD000080B586B000AF786039607B68B4
:102D74001B6A23F001027B681A627B681B6A7B6111
:102D84007B685B683B617B689B69FB60FB6823F045
:102D94000303FB60FB6823F070023B681B6813436A
:102DA400FB607B6923F002023B681B6913437B6170
:102DB4007B6923F001023B685B6813437B617B689A
:102DC4001A4A93421ED17B6923F008023B685B696F
:102DD4009B0013437B617B6923F004023B689B687F
:102DE4009B0013437B613B6923F480723B689B69BE
:102DF40013433B613B6923F400723B68DB695B006E
:102E040013433B617B683A695A607B68FA689A614C
:102E14003B68DB6819467868FFF7A0FE7B687A692F
:102E24001A62002318461837BD4680BD00000140D1
:102E340080B586B000AF786039607B681B6A23F088
:102E440010027B681A627B681B6A7B617B685B6823
:102E54003B617B689B69FB60FB6823F44073FB6008
:102E6400FB6823F4E0423B681B681B021343FB60CE
:102E74007B6923F020023B681B691B0113437B61C0
:102E84007B6923F010023B685B681B0113437B6181
:102E94007B681B4A93421FD17B6923F080023B6805
:102EA4005B699B0113437B617B6923F040023B68B0
:102EB4009B689B0113437B613B6923F480623B68FD
:102EC4009B699B0013433B613B6923F400623B68AD
:102ED400DB69DB0013433B617B683A695A607B68BA
:102EE400FA689A613B68DB6819467868FFF744FE24
:102EF4007B687A691A62002318461837BD4680BD7C
:102F04000000014080B586B000AF786039607B680E
:102F14001B6A23F480727B681A627B681B6A7B617C
:102F24007B685B683B617B68DB69FB60FB6823F063
:102F34000303FB60FB6823F070023B681B681343C8
:102F4400FB607B6923F400723B681B691B0213431B
:102F54007B617B6923F480723B685B681B021343CB
:102F64007B617B681B4A93421FD17B6923F4006217
:102F74003B685B699B0213437B617B6923F480623A
:102F84003B689B689B0213437B613B6923F480523B
:102F94003B689B691B0113433B613B6923F400526B
:102FA4003B68DB695B0113433B617B683A695A60A8
:102FB4007B68FA68DA613B68DB6819467868FFF772
:102FC400E9FD7B687A691A62002318461837BD4602
:102FD40080BD00BF0000014080B586B000AF7860BE
:102FE40039607B681B6A23F480527B681A627B68B1
:102FF4001B6A3B617B685B687B617B68DB69FB60A8
:10300400FB6823F44073FB60FB6823F4E0423B68F5
:103014001B681B021343FB603B6923F400523B68AB
:103024001B691B0313433B613B6923F480523B68D8
:103034005B681B0313433B617B680F4A934207D1D0
:103044007B6923F480423B689B699B0113437B614A
:103054007B687A695A607B68FA68DA613B68DB6886
:1030640019467868FFF7A4FD7B683A691A62002361
:1030740018461837BD4680BD0000014080B400AF3B
:10308400044B9B6803F00C031846BD465DF8047BB3
:10309400704700BF0038024080B400AF044B9B6807
:1030A40003F0F0031846BD465DF8047B704700BF8B
:1030B4000038024080B400AF044B9B6803F4E05333
:1030C4001846BD465DF8047B704700BF00380240D7
:1030D40080B400AF044B9B6803F460431846BD46BC
:1030E4005DF8047B704700BF0038024080B400AF35
:1030F400044B5B6803F480031846BD465DF8047B0B
:10310400704700BF0038024080B400AF044B5B68D6
:103114009B09C3F308031846BD465DF8047B70475A
:103124000038024080B400AF044B5B6803F44033C2
:103134001846BD465DF8047B704700BF0038024066
:1031440080B400AF044B5B6803F03F031846BD46F0
:103154005DF8047B704700BF0038024080B582B040
:1031640000AF786000F020F802467B681A607B6844
:103174001B68184600F040F802467B685A607B687A
:103184005B68184600F04EF802467B689A607B68DC
:103194005B68184600F05AF802467B68DA6000BFA4
:1031A4000837BD4680BD000080B582B000AF002363
:1031B4007B60FFF763FF0346082B0CD0082B0FD866
:1031C400002B02D0042B03D00AE0094B7B600AE0F9
:1031D400084B7B6007E0082000F04CF8786002E0C0
:1031E400034B7B6000BF7B6818460837BD4680BD33
:1031F4000024F40000127A0080B582B000AF786039
:10320400FFF74AFF03461B0903F00F03044AD35C8C
:103214001A467B68D34018460837BD4680BD00BFB8
:103224004C3F000880B582B000AF7860FFF742FFE2
:1032340003469B0A044AD35C1A467B68D34018466B
:103244000837BD4680BD00BF5C3F000880B582B032
:1032540000AF7860FFF73CFF03465B0B044AD35C86
:103264001A467B68D34018460837BD4680BD00BF68
:103274005C3F000890B587B000AF786000237B61A5
:103284000023FB6000233B61FFF730FFF860FB681D
:10329400002B04D0FB68B3F5800F03D005E0124B7C
:1032A4007B6105E0114B7B6102E00F4B7B6100BF4A
:1032B4007B68082B13D1FFF743FF02467B69B3FBFE
:1032C400F2F4FFF721FF034603FB04F4FFF72AFFA0
:1032D40003461B0C01335B00B4FBF3F33B613B6916
:1032E40018461C37BD4690BD0024F40000127A0035
:1032F40080B483B000AF7860044A7B68136000BF79
:103304000C37BD465DF8047B704700BF0400002005
:1033140080B400AF034B1B681846BD465DF8047BC0
:10332400704700BF0400002080B500AFFFF7F0FF36
:103334000246054B9B689B0A03F007030349CB5CD9
:1033440022FA03F3184680BD003802405C3F0008AF
:1033540080B483B000AF786039607B680F221A6054
:10336400124B9B6803F003027B685A600F4B9B6807
:1033740003F0F0027B689A600C4B9B6803F4E05204
:103384007B68DA60094B9B68DB0803F4E0527B68D6
:103394001A61074B1B6803F007023B681A6000BF01
:1033A4000C37BD465DF8047B704700BF003802400F
:1033B400003C024080B485B000AF78607B6803F0C5
:1033C4000703FB600C4BDB68BB60BA684FF6FF0376
:1033D4001340BB60FB681A02BB68134343F0BF632E
:1033E40043F40033BB60044ABB68D36000BF1437A6
:1033F400BD465DF8047B704700ED00E080B400AF8B
:10340400044BDB681B0A03F007031846BD465DF84E
:10341400047B704700ED00E080B483B000AF034646
:10342400FB7197F90730002B0BDBFB7903F01F02CC
:10343400074997F907305B09012000FA02F241F8C5
:10344400232000BF0C37BD465DF8047B704700BFE6
:1034540000E100E080B483B000AF03463960FB7143
:1034640097F90730002B0ADB3B68DAB20C4997F96D
:1034740007301201D2B20B4483F800230AE03B6800
:10348400DAB20849FB7903F00F03043B1201D2B20C
:103494000B441A7600BF0C37BD465DF8047B7047B9
:1034A40000E100E000ED00E080B489B000AFF86016
:1034B400B9607A60FB6803F00703FB61FB69C3F141
:1034C4000703042B28BF0423BB61FB690433062BC9
:1034D40002D9FB69033B00E000237B614FF0FF321C
:1034E400BB6902FA03F3DA43BB681A407B699A406A
:1034F4004FF0FF317B6901FA03F3D9437B680B403A
:10350400134318462437BD465DF8047B704780B5E5
:1035140082B000AF78607868FFF74CFF00BF0837CF
:10352400BD4680BD80B586B000AF0346B9607A6001
:10353400FB7300237B61FFF761FF78617A68B968E8
:103544007869FFF7B1FF024697F90F301146184624
:10355400FFF780FF00BF1837BD4680BD80B582B03D
:1035640000AF0346FB7197F907301846FFF754FF85
:1035740000BF0837BD4680BD80B500AF0E4B1B6849
:103584000D4A43F4007313600B4B1B680A4A43F45F
:1035940080631360084B1B68074A43F4807313600D
:1035A4000320FFF7B4FF0020FEF708FEFEF7DEFD60
:1035B4000023184680BD00BF003C024080B400AF29
:1035C400064B1B781A46064B1B681344044A1360C7
:1035D40000BFBD465DF8047B704700BF00000020BB
:1035E4002001002080B483B000AF78607B68DB6882
:1035F40003F40053B3F5005F0CBF01230023DBB2D7
:1036040018460C37BD465DF8047B704780B483B020
:1036140000AF786039607B681B6923F440523B68D3
:103624001A437B681A6100BF0C37BD465DF8047B02
:10363400704780B483B000AF786039607B685B69A1
:1036440023F440723B681A437B685A6100BF0C370D
:10365400BD465DF8047B70472DE9B04FC0B000AFA4
:10366400C7F8FC00C7F8F810C7F8F420C7F8F03022
:10367400D7F8F430B3F5004F40F00C81D7F8F830A8
:103684000022C7F8E830C7F8EC20D7E93A452246CB
:103694002B46911839665B417B66D7E9182321468E
:1036A40012EB0108294643EB01094FF000024FF0E9
:1036B40000034FEAC90343EA58734FEAC80290462D
:1036C4009946234618EB0303C7F8E0302B4649EB31
:1036D4000303C7F8E430D7F8F03000229A46934643
:1036E4001AEB0A03BB654BEB0B03FB65D7E9162307
:1036F400D7E93801FCF74CFD02460B46644BA3FBAB
:1037040002235B099BB21B019CB2D7F8F83000225C
:10371400C7F8D830C7F8DC20D7E9368942464B468B
:10372400911839655B417B65D7E9142341465118EB
:10373400B96449464B41FB644FF000024FF000036B
:10374400D7E912AB5946CB00514643EA517351466F
:10375400CA0010461946034642469B18C7F8D030A3
:103764004B460A4642EB0303C7F8D430D7F8F0308F
:103774000022C7F8C830C7F8CC20D7E932120B466C
:10378400DB183B64134642EB03037B64D7E9102345
:10379400D7E93401FCF7FCFC02460B4611463C4BCE
:1037A400A3FB01235B09642202FB03F3CB1ADB00B6
:1037B40003F13202364BA3FB02235B099BB25B008D
:1037C4009BB203F4F8739BB223449CB2D7F8F8304D
:1037D4000022C7F8C030C7F8C420D7E93089424670
:1037E4004B469118B9635B41FB63D7E90E2341460D
:1037F4005118396349464B417B634FF000024FF047
:103804000003D7E90CAB5946CB00514643EA517348
:103814005146CA0010461946034642469B18C7F84B
:10382400B8304B460A4642EB0303C7F8BC30D7F81E
:10383400F0300022C7F8B030C7F8B420D7E92C1212
:103844000B46DB18BB62134642EB0303FB62D7E96A
:103854000A23D7E92E01FCF79BFC02460B460C4BCE
:10386400A3FB02135B09642101FB03F3D31ADB00FE
:103874003233074AA2FB03235B099BB203F007031D
:103884009BB223449BB21A46D7F8FC309A6008E1F5
:103894001F85EB51D7F8F8300022C7F8A830C7F8D5
:1038A400AC20D7E92A8942464B46911839625B41DC
:1038B4007B62D7E9082341465418494643EB010586
:1038C4004FF000024FF00003EB0043EA5473E200B0
:1038D40014461D464346E318C7F8A0304B4645EB53
:1038E4000303C7F8A430D7F8F0300022C7F89830A3
:1038F400C7F89C204FF000024FF00003D7E926459B
:1039040029468B00214643EA917321468A00D7E970
:103914002801FCF73DFC02460B46654BA3FB022342
:103924005B099BB21B019CB2D7F8F8300022C7F8A0
:103934009030C7F89420D7E9248942464B46911821
:10394400B9615B41FB61D7E90623414651183961EE
:1039540049464B417B614FF000024FF00003D7E929
:1039640004AB5946CB00514643EA51735146CA0051
:1039740010461946034642469B18C7F888304B4602
:103984000A4642EB0303C7F88C30D7F8F030002224
:10399400C7F88030C7F884204FF000024FF00003CE
:1039A400D7E9208949468B00414643EA9173414651
:1039B4008A00D7E92201FCF7EBFB02460B461146CD
:1039C4003B4BA3FB01235B09642202FB03F3CB1AE9
:1039D4001B013233364AA2FB03235B099BB203F07B
:1039E400F0039BB223449CB2D7F8F8300022BB67A3
:1039F400FA67D7E91E8942464B469118B9605B4184
:103A0400FB60D7E9022341465118396049464B41CE
:103A14007B604FF000024FF00003D7E900AB59463A
:103A2400CB00514643EA51735146CA001046194629
:103A3400034642469B183B674B460A4642EB030348
:103A44007B67D7F8F0300022BB66FA664FF00002BD
:103A54004FF00003D7E91A8949468B00414643EAEF
:103A6400917341468A00D7E91C01FCF791FB024699
:103A74000B460F4BA3FB02135B09642101FB03F309
:103A8400D31A1B0132330A4AA2FB03235B099BB2FC
:103A940003F00F039BB223449BB21A46D7F8FC30C1
:103AA4009A6000BF07F58077BD46BDE8B08F00BFC0
:103AB4001F85EB5180B588B000AF78603960012371
:103AC400FB770023BB617868FFF78CFD0346002B6E
:103AD40049D17B68DB6823F4164323F00C033A686E
:103AE40051683A68D26811433A68126911433A68D6
:103AF40092690A431A437B68DA603B689B681946FB
:103B04007868FFF783FD3B685B6919467868FFF7BF
:103B140090FD07F108031846FFF720FB7B68144A61
:103B2400934202D17B69BB610CE07B68114A9342EA
:103B340002D13B69BB6105E07B680F4A934201D126
:103B44007B69BB61BB69002B0DD03B681B68002BF4
:103B540009D00023FB773B689A693B681B68B96905
:103B64007868FFF779FDFB7F18462037BD4680BD96
:103B740000100140004400400014014080B400AF34
:103B8400064BD3F88830054A43F47003C2F88830F2
:103B940000BFBD465DF8047B704700BF00ED00E048
:103BA400DFF834D00D480E490E4A002302E0D45801
:103BB400C4500433C4188C42F9D30B4A0B4C002371
:103BC40001E013600432A242FBD3FFF7D7FF00F0F9
:103BD4007DF9FDF76FFA7047008001200000002096
:103BE40008000020743F0008080000202401002081
:103BF400FEE700002DE9F047089E0D4604460F46F7
:103C0400002B4AD18A42944665D9B2FA82F343B171
:103C140002FA03FCC3F120029F4020FA02F2174388
:103C24009C404FEA1C4E1FFA8CF5B7FBFEF1220CA8
:103C34000EFB117742EA074201FB05F090420AD9D4
:103C44001CEB020201F1FF3780F01C81904240F22C
:103C5400198102396244121AA4B2B2FBFEF00EFBBF
:103C6400102244EA024400FB05F5A5420AD91CEBE4
:103C7400040400F1FF3280F00781A54240F2048180
:103C84006444023840EA0140641B00211EB1DC4058
:103C94000023C6E90043BDE8F0878B4208D9002E13
:103CA40000F0ED800021C6E900050846BDE8F08774
:103CB400B3FA83F1002949D1AB4202D3824200F224
:103CC400F880841A65EB030201201746002EE2D027
:103CD400C6E90047DFE702B9FFDEB2FA82F3002B40
:103CE40040F090808A1A4FEA1C471FFA8CFE01218B
:103CF400B2FBF7F507FB1520220C42EA00420EFB4B
:103D040005F0904208D91CEB020205F1FF3802D2FB
:103D1400904200F2CB804546121AA4B2B2FBF7F0EF
:103D240007FB102244EA02440EFB00FEA64508D914
:103D34001CEB040400F1FF3202D2A64500F2BB8062
:103D44001046A4EB0E0440EA05409FE7C1F12007AA
:103D54008B4022FA07FC4CEA030C05FA01F420FA22
:103D640007F3FD404FEA1C492343B5FBF9F81FFA5A
:103D74008CFE09FB18551C0C44EA054408FB0EF59F
:103D8400A54202FA01F200FA01F00BD91CEB04047B
:103D940008F1FF3A80F08880A54240F28580A8F1BE
:103DA40002086444641B9DB2B4FBF9F309FB134499
:103DB40045EA044403FB0EFEA64508D91CEB0404A3
:103DC40003F1FF356CD2A6456AD9023B644443EA49
:103DD4000843A3FB0295A4EB0E04AC42C846AE46CE
:103DE40056D353D056B1B0EB080264EB0E0404FA78
:103DF40007F7CA40CC401743C6E9007418460021AF
:103E0400BDE8F087C3F1200102FA03FC20FA01F2B5
:103E140025FA01F19D402A434FEA1C471FFA8CFE04
:103E2400B1FBF7F007FB1015110C41EA054100FB4B
:103E34000EF58D4204FA03F408D91CEB010100F1DC
:103E4400FF382FD28D422DD902386144491B92B2DA
:103E5400B1FBF7F507FB151142EA014205FB0EF130
:103E6400914208D91CEB020205F1FF3816D29142A7
:103E740014D9023D6244521A45EA004138E73146FA
:103E8400304608E73946E6E61046FBE64845A9D23F
:103E9400B9EB020865EB0C0E013BA3E74546EAE7E4
:103EA4002B4694E74046D1E7D0467BE7023D624487
:103EB40032E708460AE76444023842E7024403460C
:103EC400934200D1704703F8011BF9E770B50D4D1B
:103ED4000D4C641BA4100026A64209D10B4D0C4CBA
:103EE40000F018F8641BA4100026A64205D170BD8A
:103EF40055F8043B98470136EEE755F8043B9847DC
:103F04000136F2E76C3F00086C3F00086C3F000884
:103F1400703F0008F8B500BFF8BC08BC9E46704767
:0C3F2400F8B500BFF8BC08BC9E46704712
:103F3000C0000020102840587088A0B80000000081
:103F40000404040000000800000008000000000055
:103F50000000000001020304060708090000000039
:043F60000102030453
:083F640094FCFF7F0100000046
:043F6C003102000816
:043F7000090200083A
:083F7400010000000024F4002C
:0400000508003BA50F
:00000001FF
